:020000040800F2
:1000000000080020190B0008710A0008730A000894
:1000100000000000000000000000000000000000E0
:10002000000000000000000000000000750A000849
:100030000000000000000000770A0008790A0008AC
:10004000990B000800000000990B0008990B0008AC
:10005000990B0008810A0008990B00088B0A000818
:1000600000000000990B0008950A0008990B000891
:10007000990B0008990B000800000000AD0A000869
:100080000000000000000000000000000000000070
:10009000990B00080000000000000000990B000808
:1000A00000000000990B00080000000000000000A4
:1000B000990B0008990B00080000000000000000E8
:1000C00010B5064C2378002B07D1054B002B02D02E
:1000D000044800E000BF0123237010BD040000208D
:1000E00000000000F0270008044B10B5002B03D0DF
:1000F0000349044800E000BF10BDC04600000000F6
:1001000008000020F027000802B4714649084900A1
:10011000095C49008E4402BC7047C0460022430877
:100120008B4274D303098B425FD3030A8B4244D3BF
:10013000030B8B4228D3030C8B420DD3FF22090201
:1001400012BA030C8B4202D31212090265D0030BC0
:100150008B4219D300E0090AC30B8B4201D3CB03B6
:10016000C01A5241830B8B4201D38B03C01A5241F8
:10017000430B8B4201D34B03C01A5241030B8B42FA
:1001800001D30B03C01A5241C30A8B4201D3CB02E5
:10019000C01A5241830A8B4201D38B02C01A5241CA
:1001A000430A8B4201D34B02C01A5241030A8B42CD
:1001B00001D30B02C01A5241CDD2C3098B4201D3E5
:1001C000CB01C01A524183098B4201D38B01C01A63
:1001D000524143098B4201D34B01C01A52410309DA
:1001E0008B4201D30B01C01A5241C3088B4201D389
:1001F000CB00C01A524183088B4201D38B00C01A36
:10020000524143088B4201D34B00C01A5241411A5C
:1002100000D20146524110467047FFE701B5002069
:1002200000F006F802BDC0460029F7D076E7704717
:100230007047C04610B598B0342200210BA802F0D8
:10024000CFFA14220021684602F0CAFA18220021CF
:1002500005A802F0C5FA80231B491C4C0A681B0143
:10026000224013430B6001F02BF9194A0BA8136DC0
:100270002340136506230B93FA330D93FF3B0E9334
:100280000F330F930E3B14938023DB0216938023CE
:100290000024DB031793159401F074F90F230093E6
:1002A0000C3B019321009D33684602930394049410
:1002B00001F0BAFB20230593802305A85B02069377
:1002C00001F06AFC18B010BD00700040FFE7FFFFAE
:1002D0000010024010B5102806D10423094A0A492B
:1002E0000A4801F0B7FF10BD0128FCD1084B1A786D
:1002F000002A01D11870F6E7012AF4D100221A7001
:10030000F1E7C04621000020E80000205400002052
:10031000280000200122014B1A7070479001002034
:100320000122014B1A7070472500002030B55A4B4E
:1003300087B018780138082820D8FFF7E5FE050CAB
:100340002136424E5659A800544B1A88544B110A74
:1003500019705A7012E0534D01AC002221002800A0
:1003600001F066FE00226946280001F08BFE4C4B2E
:1003700022781A7062785A70A2789A7007B030BDED
:10038000484C002201A9200001F052FE00226946DB
:10039000200001F077FE6A46414B92781A706A4657
:1003A00052785A706A46D278E7E75A7801A90A70FB
:1003B0009A783C484A70DB7800228B7001F044FD4B
:1003C000DCE769465A7837488A709A784A70DB7851
:1003D0000022CB7001F0B8FDD0E70122324B1A7039
:1003E00000F010FC314B1860C8E72F4B0222F6E7F3
:1003F0008021A020C901C00501F046F88021040039
:10040000A0208901C00501F03FF880210500A0204F
:1004100000228901C00501F03DF88021A0200022C2
:10042000C901C00501F036F88021A0200122890110
:10043000C00501F02FF88021A0200022C901C005CD
:1004400001F028F8FA20400000F0E2FB8021A02013
:1004500000228901C00501F01DF88021A0200122A1
:10046000C901C00501F016F8FA20400000F0D0FBE9
:100470008021A0202A008901C00501F00BF880210D
:10048000A0202200C901C00501F004F876E700228F
:10049000034B1A7002325CE7210000202600002086
:1004A000E800002030000020200000202C00002068
:1004B00070B5060086B00E4C1422002101A802F08F
:1004C0008FF932002000022100F0E4FF0123022511
:1004D0000293002301A9200003930493019500F0E7
:1004E0002DFF32002900200000F0D4FF06B070BDBF
:1004F00000040050F0B5042701268DB000F066FB23
:10050000FFF798FE1422002107A802F069F90222E1
:10051000A020DB4D0821EB6AC0053B43EB62EB6A90
:1005200000243B400293029BEB6A3343EB62EB6A8D
:1005300033400393039BEB6A1343EB62EB6A134074
:1005400004930022049B00F0A5FFC021A0203200EC
:10055000C901C00500F09EFFA020CA4B07A9C00535
:1005600008930796099400F0E9FEA02007A9C005AA
:1005700007970894099400F0E1FEA020C24B07A958
:10058000C0050793089609940A9400F0D7FE10213D
:10059000A020BE4B0791C00507A90893099400F05D
:1005A000CDFE022207A9BA4807920894099400F0E8
:1005B000C5FE22002100052000F0A2FD052000F06C
:1005C000C9FD22002100072000F09AFD072000F05D
:1005D000C1FD2B6B220033432B632B6B2100334077
:1005E00001930A20019B00F08BFD0A2000F0B2FD70
:1005F0000822210007A802F0F3F8A64FA64B072512
:100600003B6090239B037B60BB19DC77BB1CDC77D2
:10061000C223FF337B623B002C331C7004233E61FA
:100620007E6380263800BD637B61FC63BC60FC6038
:10063000BC623C63BC61FC6100F0A0FB974B07A966
:10064000760138000793089600F01CFD9448954BFE
:10065000446003607F2383608033C360046144612E
:100660008461C46101F088FB8F48904BC5620360D0
:1006700080239B00836144608460C46004614461A2
:1006800004624462846201F0AAFD1022210007A8DE
:1006900002F0A6F80822210005A802F0A1F88023A4
:1006A000834DDB052B60FA23DB006B60814B280058
:1006B000EB60AC602C616C6101F0F8FE07A92800CA
:1006C000079601F01DFF05A928000594069402F085
:1006D00045F8FA20800000F09BFA02216C4800F0F7
:1006E000D3FE012871D1FFF7E3FEA0200121C00550
:1006F00000F0CAFE002404266F4B1870280001F099
:10070000F0FE6E4B32001C706D4B21006D481C706A
:1007100002F066F8320021006B4802F061F86B4B82
:100720006B4D1C606B4B2C701A6816431E60634B3C
:100730001B78012B57D10023604A3800137000F05A
:10074000F5FBFA213800490000F03AFC061EF8D10A
:10075000380000F093FC604C2080380000F012FC60
:100760005E4B22889A4232D832000221484800F07B
:1007700091FE8020400000F0ADFE00F0B3FE584B2B
:1007800022889A4211D88021A0200022C901C005E8
:1007900000F080FEFA20400000F03AFA8021A0200C
:1007A0000122C901C00500F075FE434B1B78012BE7
:1007B0003BD14C4B22889A420FD900228021A020A5
:1007C0008901C00500F066FE0DE020008BE70122E4
:1007D00002212F4800F05EFED1E78021A020890190
:1007E000C00500F05DFE364B1B78012B04D10023C1
:1007F000334A1370FFF79AFD2E78012E19D100F0BD
:1008000001FA324C384A23689B1898422DD30022B3
:1008100002211F4822602A7000F03CFE8020400028
:1008200000F058FE00F05EFE81E7002BDBD10122D4
:10083000C4E7022E00D07AE700F0E4F9234C2A4AFC
:1008400023689B18984210D3002231001048226080
:100850002A7000F01FFEFA20400000F0D9F90122B2
:1008600031000B4800F016FE61E700F0CBF9236879
:10087000984200D95BE700F0C5F9206057E7C04611
:10088000001002400000311008600000000021103C
:100890000004005034010020002401400200000444
:1008A00030000020002800405400002000300140AB
:1008B000AC000020581B0000280000209001002000
:1008C0002500002021000020E80000202C0000204E
:1008D0002000002000700040260000204808000092
:1008E000BB080000C409000030750000704700001C
:1008F0000122054B596B0A435A638022996B5205BA
:100900000A439A637047C0460010024010B50400C5
:1009100086B01422002101A801F062FF0E4B22686C
:100920009A4216D180220D4B9200596BA0200A43A7
:1009300001215A63DA6AC0050A43DA62DB6A0B40B6
:100940000093009B022301935B1801A9029300F01E
:10095000F5FC06B010BDC046002401400010024066
:10096000054B02689A4205D18023044ADB02116DCF
:100970000B4313657047C04600280040001002403A
:1009800070B5050086B01422002101A801F028FFEF
:10099000264B2A689A4246D180220126244B5201D6
:1009A000596BA0200A435A63DA6AC0053243DA62FF
:1009B000DB6A01A933400093009BE0230193DE3BF7
:1009C00002939B19049300F0B9FC1A4C1A4B802235
:1009D0002360002320006660A360E36022616361FE
:1009E000A361E361236200F0D9FB002801D0FFF787
:1009F0007DFF124BEC64A562114C80222360012321
:100A000063600F33A36000232000E3602261636111
:100A1000A361E361236200F0C1FB002801D0FFF76E
:100A200065FFAC64A56206B070BDC04600300140F1
:100A300000100240EC0000201C0002403000024088
:100A4000940100208023026810B5DB059A420CD186
:100A50000123064A0F20916B0B4393630022110080
:100A600000F04EFB0F2000F075FB10BD001002409F
:100A70007047FEE77047704710B500F0BBF810BD37
:100A800010B5012000F010FD10BD10B5102000F0D1
:100A90000BFD10BD10B5034800F004FC024800F047
:100AA00001FC10BDEC0000209401002010B50248AC
:100AB00001F0CCFD10BDC046AC0000208022104BE0
:100AC000520019680A431A60DA680E490A40DA606F
:100AD0001A680D490A4001211A609A688A439A608F
:100AE0001A680A490A401A60DA6809490A40DA6055
:100AF00000221A618022074B12059A607047C04697
:100B0000001002400C40FF88F6FFF6FEFFFFFBFFDF
:100B1000FFFF02FF00ED00E013488546134801681F
:100B2000090E134A914205D1124813490160134836
:100B300013490160002103E0124B5B58435004311C
:100B40001148124B42189A42F6D3114A02E0002390
:100B5000136004320F4B9A42F9D3FFF7AFFF01F055
:100B60001BFEFFF7C7FCFEE70008002004000000A2
:100B70001F0000003410024001000000000001408E
:100B8000000000002C2800080000002004000020C5
:100B900004000020E0010020FEE70000FA210A4BDB
:100BA00070B5890005001868FFF7B8FA00F0DCFAA4
:100BB00004000120002C05D102382200290000F099
:100BC0009FFA200070BDC046000000204023084A64
:100BD00010B5116800200B431360FFF7DFFF041E00
:100BE00003D1FFF785FE200010BD0124FBE7C046BE
:100BF00000200240024A1368013313607047C04668
:100C0000DC010020014B18687047C046DC01002061
:100C100070B50400FFF7F6FF631C5A1E93410500F0
:100C2000E418FFF7EFFF401BA042FAD370BD032189
:100C3000036870B5040098680840012801D00020BE
:100C400070BD1A680242FAD005229D681540012D38
:100C500019D19868033A02439A601960FFF7D2FFEE
:100C6000060023689B682B42E9D0FFF7CBFF801B6F
:100C70000A28F6D91023626D012013436365A36D22
:100C80001D43A565DCE71023626D13436365A36D07
:100C90000343A365D4E7000073B503210368040090
:100CA0009A680A40012A04D11968114201D0002033
:100CB00076BD9968194A114208D010230120626D4F
:100CC00013436365A36D0343A365F1E701229968AC
:100CD0000A439A60124B13491868FFF71FFA0190F4
:100CE000019B002B15D1FFF78DFF0125060023681E
:100CF0001B682B42DBD1FFF785FF801B0A28F6D942
:100D00001023626D012013436365A36D2B43A3651C
:100D1000CEE7019B013B0193E2E7C046170000804C
:100D20000000002040420F000422036870B599685B
:100D30000400114201D1002070BD9968114206D013
:100D40009A68920703D4102299680A439A60FFF7C1
:100D500059FF0425060023689B682B42EBD0FFF760
:100D600051FF801B0A28F6D910230120626D13431E
:100D70006365A36D0343A365DEE7000070B504005F
:100D80000120002C19D0636D002B06D122005032B7
:100D9000A36520001370FFF7B9FD636DDB0604D473
:100DA000042223689868104008D01023626D012047
:100DB0001343636500235034237070BD626D554941
:100DC000114002220A436265032299681140524A87
:100DD000012902D11D680D4219D180266168F605EE
:100DE0004D006D08B54203D080252D06A94276D16D
:100DF0001D69AD00AD081D611D69294319611825E4
:100E0000D968A943D960D968A5682943D960116810
:100E1000424D29401160616B1568490629431160F4
:100E2000802299685205114202D199680A439A605A
:100E3000DA683B490A402169DA60DD68E268022924
:100E400000D10420266B611C32432A43A569C97F67
:100E5000AD032A43E569ED032A434D032A432500E8
:100E60002C352D786D002A430243C220DA60626A75
:100E7000FF30824204D0A56AD8682A430243DA6070
:100E8000A21CD27F012A06D1002934D18022D96840
:100E900052020A43DA60E16B1A69012933D1214811
:100EA000656C02401A61226C18692A43A56C2A43BA
:100EB00002431A611A691143196107215A69002016
:100EC0008A435A615A69A16B0A435A610322A06599
:100ED000636D93431A000123134363656DE71D6936
:100EE000114EAD00AD081D611568354015601568DF
:100EF0002943116083E72021606D01436165A16D85
:100F00000A43A265C7E701210A42D6D01A698A437B
:100F10001A61D2E7FDFEFFFF08270140FFFFFFFD3A
:100F20001902FEFF03FCFFFFFFFFC3FF036870B55C
:100F30009B68040002205B071AD4250050352B78EB
:100F4000012B15D001232B70E369012B11D1636DA7
:100F50000B4A00201A4080235B0013431C22636568
:100F60002368A06528701A609968183A0A439A6045
:100F700070BD2000FFF790FE0028E8D0F8E7C046DB
:100F8000FEF0FFFF70B506005036337804000220F3
:100F9000012B12D0012520003570FFF7C5FE002877
:100FA00009D12000FFF743FE002804D1636D034AF6
:100FB00013401D4365650023337070BDFEFEFFFFC7
:100FC000F8B5456904000E00082D0DD00368012016
:100FD000DB680C25034207D02023626D5034134395
:100FE000636000232370F8BDFFF70CFE0700236841
:100FF0001A68154224D08022616D92000A4362650E
:10100000C022D9681201114213D1621CD27F002A7A
:101010000FD11A6812070CD59A68520723D40C21F5
:101020005A688A435A60626D1349114001220A438B
:1010300062650020A2698242D5D10C221A60D2E7F3
:10104000721CD5D0002E08D10423626D5034134396
:101050006360002303202370C5E7FFF7D3FDC01BA7
:10106000B042C4D9F0E72022616D0A4362650122D3
:10107000A16D0A43A265DCE7FEFEFFFF0368186C62
:101080007047000030B5040050342378050002207A
:10109000012B0CD001232A6823709068400707D5E4
:1010A0002022696D18000A436A650022227030BD53
:1010B00080250868AD024303496828400D4D5B0B4D
:1010C000A9420DD0916A0B439362002805D080237A
:1010D000094ADB0311680B43136000202070E6E728
:1010E000916A994391620028F7D0034A0349136833
:1010F0000B40F1E70110000008270140FFFFBFFF90
:1011000030B5FF2503242A00C3B21C40E400A240EE
:1011100089012940D243A14000280BDA0F20034067
:10112000083B0A489B089B001B18D86902401143E2
:10113000D96130BD064B80088000C018C0239B00D9
:10114000C45822401143C150F3E7C04600ED00E00F
:1011500000E100E01F2318401E3B8340014A13605A
:101160007047C04600E100E0094A431E0120934257
:101170000DD8C021074A08485360036A09061B02BC
:101180001B0A0B4303620020072390601360704723
:10119000FFFFFF0010E000E000ED00E0F8B5040004
:1011A0000120002C35D025681A4B1421E818FEF7D1
:1011B000B5FF194B800023640223A21D6064D3771E
:1011C0002E68164BA1681E40E36827690B433B431A
:1011D00067693B43A7693B43E7693B43276A3B4356
:1011E00033432B608023DB0199420CD01C2528401F
:1011F0000D3D85400A490B68AB430B6063680D6881
:1012000083402B430B6000200123E0630534D37738
:10121000E077F8BDF8FFFDBF000002400F80FFFF40
:10122000A8000240F7B5441DE67F05000220012E0C
:101230002BD00138E077A81DC67F8446F6B2022085
:101240000027012E2CD16446E0772C68EF632068DC
:101250001C37B0432060286C0190686C0740BE408A
:10126000019846606360AB682868102B0ED1A260BD
:10127000E1602B6B002B0CD00E23226813432360FC
:1012800001230268134303600020FEBDA160E260F9
:10129000EFE7042223689343236022680A23EDE7E3
:1012A000E777F2E7F8B51C220427466C016C324060
:1012B0003E0096400D6803681C6835420DD03C42E4
:1012C0000BD01A68920602D41A68BA431A60036BEC
:1012D0004E60002B19D0984717E002273E00964039
:1012E000354213D03C4211D01A68920606D40A2423
:1012F0001A68A2431A600122831DDA770022431D77
:101300004E60DA77C36A9342E5D1F8BD082637000C
:1013100097403D42F9D03442F7D00E251C68AC43CB
:101320001C6001231C009440821D4C60C363D37772
:101330000022431DDA77436BE5E70000F0B50B6848
:1013400085B003930023039ADA4001D105B0F0BDC4
:1013500001229A400292029C039A2240019200D1FB
:1013600086E04A681500944610229543022D0DD15F
:1013700007240F271C40A400A740DA089200821817
:10138000166ABE430F69A7403E43166203225E0001
:10139000B240013DD243012D0FD8CC688568B440DE
:1013A00015402C4384604568029C0127A543644690
:1013B00024093C409C402C434460644603273C4045
:1013C000B440056815402C430460C46822408C6812
:1013D000B44022438024C26062466405224247D062
:1013E0000125244C626B2A433D001D40AD000C37A3
:1013F000AF406263204A9C08A400A418A66800229B
:10140000BE43A027FF05B84208D01C4F0132B842A6
:1014100004D01B4F0532B84200D1043AAA406746B7
:101420003243A260174A019C1668019DE44335438C
:10143000FF0301D435002540674615605668019DBD
:101440003543BF0301D43500254067465560966893
:10145000019D3543FF0201D4350025406746956064
:10146000D568019E2E43BF0201D425402E00D660D0
:10147000013368E700100240000001400004005002
:10148000000800500004014000690840411E8841E6
:10149000C0B27047002A01D0816170478162FCE7C9
:1014A0004369594041617047044B10B55A69104275
:1014B00002D05861FEF70EFF10BDC0460004014087
:1014C0008023034A5B0011680B4313607047C046DA
:1014D00000700040024A5368184350607047C0468D
:1014E000007000400223054A11680B431360042377
:1014F000034A11690B43136130BF7047007000400D
:1015000000ED00E00C22194B10B5D9680A40082AFA
:1015100029D00C2A09D0042A1DD11868144BC00602
:10152000C0171840134BC01810BD8A021248120F82
:10153000825C0902D868890F0131C00304D50F48C5
:101540005043FEF7EBFDEFE71B68DB0601D50C48C7
:10155000F6E70848F4E780205B6800021B045B0F95
:1015600001339840E0E70548DEE7C046001002403E
:1015700000E548FF0024F4001828000800127A0053
:1015800000093D00F0B5050087B0002802D1012018
:1015900007B0F0BD0C23C04CE668E2681E40802313
:1015A0005B021A4001920268D2073DD42B689B0768
:1015B00000D583E02B68DB0628D5002E00D0DDE0C7
:1015C00023689B0502D5AB69002BE0D06268B34964
:1015D0002B6A0A401A4362606168EA690902090AD3
:1015E00012060A43626080225B0B013312029A40AA
:1015F0001300E16800200A06A949120F8A5CD34053
:10160000A84A1360FFF7CAFA0028C1D12B681B074C
:1016100000D5EAE02B685B0700D50CE16B6A002B74
:1016200000D091E10020B3E7082E04D00C2E09D1A0
:10163000019A002A06D023689B03B7D56B68002B5C
:10164000B4D1A4E76A689A4211D122681343236097
:10165000FFF7D8FA07008022236892021342A5D12F
:10166000FFF7D0FAC01B6428F5D9032090E7A0212A
:10167000C9028A4205D180222168D2020A4322602F
:10168000E3E7216888480140216021680B40059309
:10169000059B864923680B402360002AD8D1FFF7B9
:1016A000B1FA0700802223689202134200D17DE73D
:1016B000FFF7A8FAC01B6428F4D9D6E72022EB680C
:1016C000134203D02168934311432160042E04D0B8
:1016D0000C2E25D1019A002A22D12268520702D568
:1016E000002B00D153E761682A697148120201405A
:1016F0000A430921626022688A4313432360FFF78B
:1017000001FFE368664A1B061B0FD35CD840654B9C
:1017100018600020FFF742FA002800D14AE737E7B7
:10172000002B19D0092122688A4313432360FFF755
:1017300069FA070004222368134207D062682B6904
:101740005B491B020A401343636033E7FFF75AFA11
:10175000C01B0228EED988E7012223689343236047
:10176000FFF750FA070004222368134200D121E753
:10177000FFF748FAC01B0228F5D976E7AB69002BC2
:1017800020D0802322685B0013432360FFF73AFADE
:10179000070080222368920013420DD063683F4AFD
:1017A00013402A6A134363606268EB6912021B06E6
:1017B000120A1343636029E7FFF724FAC01B0228CB
:1017C000E7D952E723683B4A13402360FFF71AFA30
:1017D0000700802223689200134200D116E7FFF72A
:1017E00011FAC01B0228F4D93FE76A690123002AD5
:1017F00010D0226D13432365FFF704FA070002227D
:10180000236D134200D005E7FFF7FCF9C01B022847
:10181000F5D92AE7226D9A432265FFF7F3F907000D
:101820000222236D134200D1F4E6FFF7EBF9C01B4F
:101830000228F5D919E780230021A26B5B050191ED
:101840001A4204D1A26B1343A363012301938022A4
:10185000194F52003B68134208D08022AB685200F7
:1018600093422BD1226D134323654CE080223B68C9
:10187000520013433B60FFF7C5F980235B000290E1
:1018800003933B68039A1342E7D1FFF7BBF9029B2E
:10189000C01A6428F5D9E8E600100240FF1FFFFFD8
:1018A0000828000800000020FFFFFEFFFFFFFBFFED
:1018B000FFE0FFFFFFFEFFFF00700040002B16D18E
:1018C000236D534A13402365236D524A1340236509
:1018D000FFF798F907008022236D920013422AD067
:1018E000FFF790F94C4BC01B9842F4D9BDE6A021FC
:1018F000C9008B420BD18023216DDB000B43236594
:10190000236D1A432265FFF77DF907000EE0236D72
:101910003F4A13402365236D3E4A1340A4E7FFF777
:1019200071F93D4BC01B984200D99EE68022236D81
:1019300092001342F3D0019B012B00D06EE6A36B03
:10194000364A1340A36369E60C2E43D0344A022B77
:101950002ED12368802613402360FFF753F9070038
:10196000B604236833421DD1E96AAB6AE2680B43CF
:101970002C490A4013432A6B80251343E3608023DC
:1019800022685B0413432360FFF73CF90600AD04B3
:1019900023682B4200D045E6FFF734F9801B02286C
:1019A000F6D962E6FFF72EF9C01B0228D9D95CE60A
:1019B0002368802513402360FFF724F90600AD0457
:1019C00023682B4200D12DE6FFF71CF9801B02286B
:1019D000F6D94AE61800012B00D1D9E58022E36848
:1019E000A96A52021A4001208A4200D0D0E5F022B2
:1019F000E96A92031A408A4200D0C9E5C020000477
:101A00000340286B181A431E9841C0B2C0E5C04677
:101A1000FFFEFFFFFFFBFFFF88130000FFFFFFEF4C
:101A2000FFFFFFFEFFFF02FFF7B5061E019101D188
:101A30000120FEBD0122514C0199236813408B42C5
:101A400027D3326893072FD4D30735D401232268D4
:101A500001991A408A4200D981E03268484C530704
:101A600000D584E0130706D5E26833694549DB00F9
:101A70000A401343E360FFF745FDE368424A1B0653
:101A80001B0FD35CD840414B18600020FFF786F84D
:101A9000CFE72368019993430B43236023681340E6
:101AA000019A9342C4D1CCE7F0203549CB688343F7
:101AB000B0680343CB60C7E7314D72682B68022AD8
:101AC00019D19B03B4D50321EB688B431343EB601F
:101AD000FFF798F873680700022B19D10C22EB6806
:101AE0001340082BB2D0FFF78DF8294BC01B98424A
:101AF000F4D903209DE7032A02D19B01E3D497E7A1
:101B0000012A02D15B07DED492E79B05DBD48FE785
:101B1000032B0BD10C22EB681340934296D0FFF7B6
:101B200071F81B4BC01B9842F4D9E2E7012B10D08F
:101B30000C22EB68134289D0FFF764F8144BC01BEA
:101B40009842F5D9D5E7FFF75DF8114BC01B9842D5
:101B5000CFD80C22EB681340042BF4D176E722682F
:101B60009A43226022681A4200D176E760E7E36870
:101B700008490B40F1680B43E36073E70020024023
:101B800000100240FFC7FFFF0828000800000020E7
:101B900088130000FFF8FFFF0368F7B505009B06F8
:101BA0003BD5802300214F4C5B05A26B00911A426C
:101BB00004D1A26B1343A3630123009380274A4EF1
:101BC0007F0033683B424FD06868C023C0260100C5
:101BD0002268B6039B023040324019401E009042FA
:101BE00053D1236D334057D16968C0230A009B024B
:101BF0001A409A4207D123683C480340C020800322
:101C000001400B432360236D1A43009B2265012B87
:101C100003D1A36B364A1340A3632A68930706D502
:101C20000C203049CB6C8343A8680343CB64530733
:101C300006D52C492F48CB6C0340E8680343CB649E
:101C4000130706D527492C48CB6C0340286903436A
:101C5000CB640020130617D5224A2849D36C0B40C9
:101C600069690B43D3640FE033683B433360FEF78D
:101C7000C9FF019033683B42A6D1FEF7C3FF019B29
:101C8000C01A6428F6D90320FEBD9942A9D1236861
:101C900001209B03A5D5F7E78B42A5D02B689B06B7
:101CA000A2D58022216D206D120302432265226D90
:101CB000134B14480B40024022652365CB0500D42A
:101CC00092E7FEF79FFF80270600BF00236D3B428F
:101CD00000D089E7FEF796FF0B4B801B9842F5D9A1
:101CE000D1E7C0460010024000700040FFFFCFFF68
:101CF000FFFFFFEFFFF3FFFFFFCFFFFFFFFFF3FF4C
:101D0000FFFFFCFFFFFFF7FF88130000A021026820
:101D1000F8B5D36804008B43D360FEF773FFFA274E
:101D200006002025BF002368DB682B4201D000207D
:101D3000F8BDFEF767FF801BB842F4D90320F7E730
:101D4000F8B5402403680500DA68224201D000207B
:101D5000F8BD01225242DA60FEF754FFFA2706006E
:101D6000BF002B68DB682342F1D1FEF74BFF801BDD
:101D7000B842F6D90320EBE770B50400012500282E
:101D80001AD0861CF37FDBB2002B03D14219D37724
:101D9000FEF7E6FD0223CA22F377236820005A6289
:101DA000773A5A62FFF7CCFF2368051E06D0FF2260
:101DB0005A620423F3770125280070BD9A681B49F5
:101DC00020690A409A60626899680243A0690243E8
:101DD0000A439A60E26860691A61A268196912048C
:101DE0000A4380211A61DA688A43DA60DA6C7D3945
:101DF0008A43DA64E269D96C02430A43DA649B6875
:101E00009B060CD42000FFF781FF002807D0FF229B
:101E1000236801345A620423F377E577CBE7FF2286
:101E200023685A620123F377C6E7C046BFFF8FFFDE
:101E30000023092803D81B011843C0B270470A3891
:101E40000133C0B2F5E700000223F0B5471C0C00D7
:101E5000F97F85B005001E00012937D00121F977EF
:101E6000C118CB77019140210668637820780293EE
:101E7000B3680B40002A2CD1002B00D1E370FFF790
:101E8000D7FF03900298FFF7D3FF0290A078FFF7E7
:101E9000CFFF0300E07800041843039B1B041843A2
:101EA000029B1B021843CA237362773B7362029042
:101EB0002800FFF745FF2B68061E16D0FF225A6246
:101EC0000423019AD3770023FB770126300005B065
:101ED000F0BD002B00D1E370029B00041B021843ED
:101EE000A3781843E3781B04DCE71548029A1549E8
:101EF00002401A609A6820690A409A60E26899680C
:101F000002430A4380219A60DA688A43DA609B6858
:101F10009B060CD42800FFF7F9FE002807D0FF220B
:101F20002B685A620423019AD377FE77CDE7FF220C
:101F30002B685A620123019AD3770023FB77C5E708
:101F40007F7F7F00FFFFFBFF0223F0B5471C0E00E1
:101F5000F97F85B004001D00012936D00121F977F1
:101F6000C1180191CB773178F07849037378B5784F
:101F70000291002A4CD11032134202D093430A330B
:101F80007370FFF755FF03907078FFF751FF06005D
:101F90002800FFF74DFF039B36021D04029B1843E8
:101FA0000543CA22236820005A62773A5A62FFF733
:101FB000C7FE2E432368051E0AD0FF225A6204235F
:101FC000019AD3770023FB770125280005B0F0BDE7
:101FD0008021124806405E60DA688A43DA609B68B6
:101FE0009B060CD42000FFF791FE002807D0FF22AB
:101FF00023685A620423019AD377FD77E4E7FF222E
:1020000023685A620123019AD3770023FB77DCE728
:10201000029A0004104305431E02C2E73FFFFF007F
:102020000A23020953430F2210401818C0B2704708
:1020300070B50C0001683F208B6A63600B695B041C
:102040005B0CA3600B680E490B40190C1E0ADDB235
:1020500040230840F6B2194020706670A570E17008
:10206000002A0AD1FFF7DCFF20703000FFF7D8FF0D
:1020700060702800FFF7D4FFA070002070BDC0463C
:102080007F7F7F0070B50C0003680E495B680B40D2
:10209000180CDD04DEB21B04ED0E5B0FE070657002
:1020A000A6702370002A0AD1FFF7BAFFE07028005B
:1020B000FFF7B6FF60703000FFF7B2FFA07000209E
:1020C00070BDC0463FFFFF00F8B504000D001600CC
:1020D0001F00226893682B409D4201D0002031E010
:1020E000731CF7D0FEF78EFDC01B8642F1D8E021AD
:1020F00023685A688A435A6082226168520091427A
:102100000CD18021A26809028A4203D08021C90033
:102110008A4203D140211A688A431A608021A26A48
:1021200089018A4206D11968074801401960196877
:102130000A431A602300012251331A70002303203E
:1021400050342370F8BDC046FFDFFFFFF8B5130021
:10215000822204004068520090421ED180208025D7
:10216000A2680002ED00824201D0AA4206D14027B7
:1021700026683068B8433060AA420ED00A00802139
:102180002000FFF7A1FF002801D10020F8BD202387
:10219000626D032013436365F8E70A000121EFE74E
:1021A0001300822210B5040040685200904208D10A
:1021B0000A0080212000FFF787FF002809D10020B6
:1021C00010BD220051321278052AF8D10A000121EF
:1021D000F0E72023626D032013436365F0E770B5D9
:1021E00004000120002C33D000232500A3625135C8
:1021F0002B78DBB2002B05D1220050321370200067
:10220000FEF7BEFB0223402221682B700B68A068FA
:1022100093430B606368A2690343E068034320694A
:10222000034360690343E0690343206A0343A06AF0
:10223000034380208000104003430B600423120CF2
:102240001A40636A00201A4301234A6060652B70BC
:1022500070BD0000F7B506000191503635780400D6
:102260000220012D48D025000138307051352F78DB
:10227000FFB287420CD00430FF30844661680338D7
:10228000FF38614536D1A168002933D1042F31D1FF
:102290000199012000292DD0002A2BD0002B29D014
:1022A0002878042801D00520287000200199606555
:1022B0002064E38660642163A386A263A387E38727
:1022C0002B78E06C042B18D1234B0363234BC362A0
:1022D000234B2168436300238363E38F0C319BB25C
:1022E000FEF7A0FF031E0CD010230120626D1343E4
:1022F0006365287000233370FEBD1A4B03631A4BCD
:10230000E5E701272268A06C5168394351600363F7
:10231000C36243638363E38E0C329BB2216BFEF78F
:1023200081FF002806D01023626D380013436365D7
:102330002F70DFE7402223681968114202D1196823
:102340000A431A60202259680A435A6002225968D7
:102350000A435A60CEE7C04671230008AD23000847
:10236000892300087D230008032400087047704774
:1023700010B5806AFFF7FBFF10BD704710B5806A8B
:10238000FFF7FBFF10BD70470321806A10B502689C
:1023900053688B4353601023426D1343436503001E
:1023A000012251331A70FFF7EEFF10BD70B5050022
:1023B000846AFEF727FC2B6820251B6802002B424D
:1023C0001BD1032023685968A94359605968814388
:1023D000596020006421FFF7B9FE002800D0656530
:1023E0000023E3872300012251331A70636D002B11
:1023F00003D02000FFF7C7FF70BD2000FFF7B6FF36
:10240000FAE770B50500846AFEF7FCFB2B6820250F
:102410001B6802002B421FD1216820004B68AB4390
:102420004B606421FFF7BCFE002802D0636D1D43A2
:1024300065650321226853688B4353600023E3865C
:10244000E3872300012251331A70636D002B03D000
:102450002000FFF798FF70BD2000FDF761FFFAE74D
:10246000802210B50368D205904202D00D4CA042E4
:102470000CD17024A3434C682343904202D0094AF4
:10248000904203D1084A1340CA6813438022934301
:102490000A69134303608B68C3620B68836201237C
:1024A000436110BD00080140FFFCFFFF70B5040050
:1024B0000120002C14D0250039352B78DBB2002BFD
:1024C00005D12200383213702000FEF7BBFA022338
:1024D00020682B70211DFFF7C3FF012300202B7004
:1024E00070BD012203680720D9681143D96099683B
:1024F0000140062902D019680A431A60002070477B
:10250000F0B5040002223834257803001000012DB4
:1025100017D01D0001271B68393527702A709A686B
:10252000454802409A600A68402A00D16DE014D8FC
:10253000102A0BD006D8002A08D0012300202B70C7
:102540002070F0BD202A01D0302AF6D17021986881
:10255000884369390A4302433DE0602A3DD017D8D9
:10256000502AEAD14868CA68196A1E6A1201BE4335
:10257000F0271E629E69BE4332430A26B1430143DF
:102580009A61196270219A688A431100572221E0EA
:10259000702A12D0802080018242CED19A682748CA
:1025A0004E6810408A68C968324309020A430243F0
:1025B0009A6080229968D2010CE09A681F484E68A0
:1025C00010408A68C968324309020A4302439A608C
:1025D000772299680A439A60AFE71026186A4A681A
:1025E000B043C96818629E69154F09033E403143E4
:1025F000A026186A99617021B043120102431A6241
:102600009A688A4311006722E4E74868CA68196A31
:102610001E6A1201BE43F0271E629E69BE4332430A
:102620000A26B14301439A61196270219A688A436C
:1026300011004722CEE7C0468800FFFFFF00FFFFE2
:10264000FF0FFFFF70477047704770470222036813
:1026500010B51969040011420DD0D96811420AD091
:10266000053A1A619B69043202769B075ED0FFF738
:10267000EAFF00232376042223681969114210D04F
:10268000D96811420DD0093A1A61073222769A6947
:10269000C0239B0020001A424ED0FFF7D4FF002336
:1026A000237608222368196911420ED0D968114295
:1026B0000BD0113A1A61DB690D32227620009B079C
:1026C00040D0FFF7C0FF002323761022236819694A
:1026D000114210D0D96811420DD0213A1A61193235
:1026E0002276DA69C0239B0020001A4230D0FFF71F
:1026F000AAFF00232376012223681969114207D01B
:10270000D968114204D0033A1A612000FDF702FE95
:10271000402223681969114207D0D968114204D0B8
:10272000813A1A612000FFF790FF10BDFFF78AFF82
:102730002000FFF789FF9CE7FFF784FF2000FFF7E9
:1027400083FFACE7FFF77EFF2000FFF77DFFBAE7CE
:10275000FFF778FF2000FFF777FFCAE770B50400A6
:1027600002223834257803001000012D13D01D00FB
:102770007026186839352A7042688368B2430E683B
:10278000496832438026B3430B4342608360012390
:1027900000202B70207070BD70B500260C4D0D4CC4
:1027A000641BA410A64209D1002600F021F80A4DAE
:1027B0000A4C641BA410A64205D170BDB300EB58AF
:1027C00098470136EEE7B300EB5898470136F2E739
:1027D00024280008242800082428000828280008A5
:1027E00003001218934200D1704719700133F9E7C2
:1027F000F8B5C046F8BC08BC9E467047F8B5C04660
:08280000F8BC08BC9E467047BD
:102808000000000000000000010203040607080998
:0C281800030406080C101820300000001B
:04282400E9000008BF
:04282800C1000008E3
:04282C000000200088
:0400000508000B19CB
:00000001FF
